:020000040000fa
:0200000400807a
:045f8800ffff000017
:020000040000fa
:0200000400807a
:045f8c0000500e842f
:020000040000fa
:0200000400807a
:045f900038fc745f06
:020000040000fa
:0200000400807a
:045f94003b44121464
:020000040000fa
:0200000400807a
:045f9800090000718b
:020000040000fa
:0200000400807a
:045f9c0002000000ff
:020000040000fa
:0200000400807a
:045fbc0000000010d1
:020000040000fa
:020000040100f9
:10020000f87f012085ba02010d13030113130301c6
:100210001f130301251303012b130301000000002a
:10022000000000000000000000000000590c010167
:100230001913030100000000910d0101f70d0101e8
:100240006139010101910101d71801011d3d010131
:10025000d7180101d718010119b30001d7180101fe
:10026000d7180101d7180101d7180101d7180101ca
:10027000dd850001d7180101d7180101d718010148
:10028000d7180101d7180101d7180101d7180101aa
:10029000d7180101d7180101d7180101d71801019a
:1002a000d7180101d7180101d7180101d71801018a
:1002b000d7180101d7180101d7180101359602019d
:1002c000bd350201d7180101d7180101d718010166
:1002d000d7180101d71801011d070101d718010125
:0c02e000d718010100000000019d020180
:020000040000fa
:020000040100f9
:1002ec0000203200c031012000000000000000009e
:1002fc0001203200c031012000000000000000008d
:10030c0002203200c031012000000000000000007b
:10031c0003203200c031012000000000000000006a
:10032c0004203200c0310120000000000000000059
:10033c0005203200c0310120000000000000000048
:10034c0006203200c0310120000000000000000037
:10035c0007203200c0310120000000000000000026
:10036c0008202000f43101200000000000000000f3
:10037c0009202000f43101200000000000000000e2
:10038c000a202000f43101200000000000000000d1
:10039c000b202000f43101200000000000000000c0
:1003ac000c202000f43101200000000000000000af
:1003bc000d202000f431012000000000000000009e
:1003cc000e202000f431012000000000000000008d
:1003dc000f202000f431012000000000000000007c
:1003ec00f8b500bff8bc08bc9e46704711d6020198
:1003fc00f8b500bff8bc08bc9e467047edd50201ad
:020000040000fa
:020000040100f9
:08040c009853010001000000fb
:020000040000fa
:020000040100f9
:1004140080b58ab004aff860b9607a603b607b68ed
:100424009b0018460ef038fb38613b69002b13d053
:1004340054200ef031fb78617b69002b08d05422e4
:100444000021786932f0a6fd7b693a691a6305e0f8
:1004540038690ef0d3fb01e000237b617b69002b3c
:100464000dd0002303937b6902937b6a01933b6a5b
:1004740000933b687a68b968f86800f028f87b69eb
:1004840018461837bd4680bd80b588b002aff86005
:10049400b9607a603b607b6a01933b6a00933b6876
:1004a4007a68b968f868fff7b3ff38613b69002bd5
:1004b40005d0386900f07bf801237b6102e04ff03e
:1004c400ff337b617b6918461837bd4680bd80b514
:1004d40086b000aff860b9607a603b60bb6a186ba5
:1004e4007b689b001a46a52132f054fdbb6a1a6b47
:1004f4007b6803f18043013b9b0013443b613b69f0
:1005040023f007033b61bb68002b1ed000237b61f3
:1005140012e0ba687b6913441978ba6a7b69134498
:1005240034330a461a70ba687b6913441b78002b6b
:1005340006d07b6901337b617b690f2be9d900e02d
:1005440000bfbb6a002283f843203b6a042b01d915
:1005540004233b62bb6a3a6ada62bb6a3a6a5a6447
:10056400bb6a043318461bf0d1fdbb6a1833184626
:100574001bf0ccfdbb6aba6a1a613b6ac3f105027f
:10058400bb6a9a61bb6aba6a5a623a68f96838699e
:1005940010f014fb0246bb6a1a607b6a002b02d07f
:1005a4007b6aba6a1a6000bf1837bd4680bd80b541
:1005b40084b000af786010f0b6fb404b1b68013389
:1005c4003e4a13603e4b1b68002b09d13c4a7b68b2
:1005d40013603a4b1b68012b10d101f0fdfb0de0b9
:1005e400384b1b68002b09d1354b1b68da6a7b68d2
:1005f400db6a9a4202d8324a7b681360324b1b682a
:100604000133314a13607b68db6a01229a402f4b25
:100614001b6813432d4a13607b68da6a2c4913461e
:100624009b0013449b000b4404331b68fb607b68f2
:10063400fa689a60fb689a687b68da60fb689b6872
:100644007a6804325a607b681a1dfb689a607b687a
:10065400da6a13469b0013449b001d4a1a447b68c4
:100664005a617b68da6a1a4913469b0013449b005b
:100674000b441b687a68d26a591c154813469b00c0
:1006840013449b000344196010f066fb0d4b1b6878
:10069400002b0ed00a4b1b68da6a7b68db6a9a422d
:1006a40007d20c4b4ff080521a60bff34f8fbff349
:1006b4006f8f00bf1037bd4680bd00bf442d0120a1
:1006c4006c2c0120502d0120602d01204c2d012087
:1006d400702c012004ed00e080b586b000af786096
:1006e40000237b6110f01ffb7b68002b02d1394b88
:1006f4001b6800e07b683b613b69043318461bf0d0
:100704006ffd0346002b15d13b69da6a3249134663
:100714009b0013449b000b441b68002b0ad13b69cc
:10072400db6a012202fa03f3da432c4b1b68134001
:100734002a4a13603b699b6a002b04d03b69183337
:1007440018461bf04dfd264b1b680133244a1360e9
:10075400204b1b683a699a4201d1012300e000232f
:10076400fb60204b1b68002b10d0fb68002b0dd0c6
:100774003b69043319461c481bf0d5fc1b4b1b6812
:1007840001331a4a136001237b6106e0184b1b688e
:10079400013b174a136001f09bfb10f0ddfa7b6903
:1007a400012b02d0386901f083fb0e4b1b68002b30
:1007b4000cd0084b1b683a699a4207d10d4b4ff095
:1007c40080521a60bff34f8fbff36f8f00bf18378b
:1007d400bd4680bd6c2c0120702c01204c2d0120c5
:1007e400602d0120502d0120182d01202c2d0120d9
:1007f400442d012004ed00e080b586b000af7860a0
:10080400396000237b6100f02ffc224b1b683b61a5
:100814007b681b683a681344fb607b681b683a6911
:100824009a420bd27b681b68fa689a4211d2fa6822
:100834003b699a420dd901237b610ae07b681b68fe
:10084400fa689a4203d3fa683b699a4201d90123b0
:100854007b617b68fa681a607b69002b06d0fa68b2
:100864003b69d31a0021184602f0c4f900f046fc93
:10087400b860bb68002b07d1074b4ff080521a6059
:10088400bff34f8fbff36f8f7b6918461837bd4690
:1008940080bd00bf482d012004ed00e080b584b088
:1008a40000af78600023fb607b68002b08d000f069
:1008b400dbfb0021786802f09df900f01ffcf86072
:1008c400fb68002b07d1064b4ff080521a60bff330
:1008d4004f8fbff36f8f00bf1037bd4680bd00bf81
:1008e40004ed00e080b58ab000af78607b68fb61fe
:1008f400324b1b68fa699a4203d1002387f82730e8
:1009040056e010f010fafb695b69bb61fb699b6af6
:100914007b612b4b1b683b612a4b1b68fb6010f00f
:100924001bfa7b69284a934203d1012387f82730b5
:100934003ee0ba693b699a4203d0ba69fb689a42bd
:1009440003d1022387f8273032e0bb691f4a934260
:1009540020d1fb699b6a002b18d1032387f8273029
:1009640000233b620ee0fa693b6a134450331b7860
:10097400dbb2012b03d1022387f8273018e03b6a4e
:1009840001333b623b6a002beddd11e0022387f863
:1009940027300de0bb690e4a934202d0bb69002b9d
:1009a40003d1042387f8273002e0012387f8273096
:1009b40097f8273018462837bd4680bd6c2c012097
:1009c400fc2c0120002d0120042d0120302d0120bc
:1009d400182d012080b584b000af786010f0a3f921
:1009e4007b68002b02d1074b1b6800e07b68fb602f
:1009f400fb68db6abb6010f0aff9bb6818461037c0
:100a0400bd4680bd6c2c012080b489b000af7860f5
:100a1400eff311824ff0200383f31188bff36f8f3c
:100a2400bff34f8f3a61fb603b69fb617b68002b2e
:100a340002d10a4b1b6800e07b68bb61bb69db6abf
:100a44007b61fb69bb60bb6883f311887b691846d3
:100a54002437bd465df8047b704700bf6c2c012031
:100a640080b584b000af786010f05df97b68002b2e
:100a740002d1074b1b6800e07b68fb60fb685b6c82
:100a8400bb6010f069f9bb6818461037bd4680bddd
:100a94006c2c012080b489b000af7860eff3118230
:100aa4004ff0200383f31188bff36f8fbff34f8f91
:100ab4003a61fb603b69fb617b68002b02d10a4b06
:100ac4001b6800e07b68bb61bb695b6c7b61fb6995
:100ad400bb60bb6883f311887b6918462437bd4625
:100ae4005df8047b704700bf6c2c012080b588b092
:100af40000af786039600023fb613b68042b01d9a7
:100b040004233b6010f00ff97b68002b02d1594b92
:100b14001b6800e07b68bb61bb695b6c7b617a69c5
:100b24003b689a4200f09f803a687b699a420dd9eb
:100b3400504b1b68ba699a420fd04e4b1b68db6a54
:100b44003a689a4209d90123fb6106e0494b1b68c4
:100b5400ba699a4201d10123fb61bb69db6a3b613b
:100b6400bb695a6cbb69db6a9a4204d0bb69db6a15
:100b74003a689a4202d9bb693a68da62bb693a6850
:100b84005a64bb699b69002b04db3b68c3f1050213
:100b9400bb699a61bb6959693a6913469b0013445e
:100ba4009b00354a1344994252d1bb690433184619
:100bb4001bf016fb0346002b09d101223b6902fa04
:100bc40003f3da432d4b1b6813402c4a1360bb69b3
:100bd400db6a01229a40294b1b681343274a13609e
:100be400bb69da6a244913469b0013449b000b44f7
:100bf40004331b68fb60bb69fa689a60fb689a68f7
:100c0400bb69da60fb689b68ba6904325a60bb69e5
:100c14001a1dfb689a60bb69da6a13469b00134489
:100c24009b00154a1a44bb695a61bb69da6a1249c6
:100c340013469b0013449b000b441b68ba69d26a99
:100c4400591c0d4813469b0013449b000344196030
:100c5400fb69002b07d00a4b4ff080521a60bff398
:100c64004f8fbff36f8f10f077f800bf2037bd466a
:100c740080bd00bf6c2c0120702c01204c2d012064
:100c840004ed00e080b586b000af786010f04bf85a
:100c94007b68002b02d13c4b1b6800e07b683b6106
:100ca4003b69043318461bf09bfa0346002b15d10d
:100cb4003b69da6a354913469b0013449b000b4495
:100cc4001b68002b0ad13b69db6a012202fa03f399
:100cd400da432f4b1b6813402d4a13603b699b6a10
:100ce400002b04d03b69183318461bf079fa3b6992
:100cf4000433194627481bf016fa00237b6110e0e1
:100d04003a697b69134450331b78dbb2012b05d15c
:100d14003a697b691344503300221a707b690133aa
:100d24007b617b69002bebdd10f016f81a4b1b6816
:100d3400002b05d00ff0f7ff01f0caf810f00cf803
:100d4400114b1b683a699a421ad1134b1b68002b4a
:100d540008d0124b4ff080521a60bff34f8fbff38d
:100d64006f8f0de00b4b1b68fb600d4b1b68fa6823
:100d74009a4203d1044b00221a6001e000f0d2fc35
:100d840000bf1837bd4680bd6c2c0120702c01209b
:100d94004c2d0120302d0120502d012004ed00e0c8
:100da400442d012080b487b000af786000237b61bc
:100db4007b68fb60fb685b69144a93421ed1fb6845
:100dc4009b6a134a934219d0fb689b6a002b15d186
:100dd40001237b6100233b610de0fa683b69134406
:100de40050331b78dbb2012b02d100237b6105e079
:100df4003b6901333b613b69002beedd7b6918469f
:100e04001c37bd465df8047b704700bf302d0120c0
:100e1400042d012080b584b000af78607b68fb604e
:100e2400354b1b68fa689a4261d0fb68002b5ed090
:100e34000ff079fff868fff7b5ff0346002b54d095
:100e4400fb68043318461bf0cbf9fb68db6a01220c
:100e54009a402a4b1b681343284a1360fb68da6ada
:100e6400274913469b0013449b000b4404331b681f
:100e7400bb60fb68ba689a60bb689a68fb68da6012
:100e8400bb689b68fa6804325a60fb681a1dbb6829
:100e94009a60fb68da6a13469b0013449b00184a65
:100ea4001a44fb685a61fb68da6a154913469b00c9
:100eb40013449b000b441b68fa68d26a591c1048ff
:100ec40013469b0013449b00034419600a4b1b68a0
:100ed400da6afb68db6a9a4207d20a4b4ff0805207
:100ee4001a60bff34f8fbff36f8f0ff035ff00bf52
:100ef4001037bd4680bd00bf6c2c01204c2d012055
:100f0400702c012004ed00e080b58ab002af01230b
:100f1400fb6100233b6100237b6111e01d4a7b6977
:100f2400134419783a467b6913440a461a703a46c0
:100f34007b6913441b78002b06d07b6901337b61ea
:100f44007b690f2beadd00e000bf0023bb6116e0e4
:100f5400114b3b61bb699b00104a13443946019312
:100f64000023009300234ff480723869fff78cfa52
:100f7400f861fb69002b06d0bb690133bb61bb6917
:100f8400002be5dd00e000bffb6918462037bd46b5
:100f940080bd00bfe4380301151d0001682d012048
:100fa40080b582b000affff7afff78607b68012b9c
:100fb40002d109f05dfa78607b68012b14d14ff0ff
:100fc400200383f31188bff36f8fbff34f8f3b6010
:100fd400084b4ff0ff321a60074b01221a60074b8f
:100fe40000221a600ff061fe054b1b6800bf083732
:100ff400bd4680bd642d0120502d0120482d0120c7
:101004005c3e012080b582b000af09f0fbfa0346d4
:101014001846fff761fb00237b6009e0104a7b68f8
:1010240052f823301846fff757fb7b6801337b6087
:101034007b68002bf2dd00f00fff4ff0200383f3f9
:101044001188bff36f8fbff34f8f3b60054b0022b6
:101054001a600ff061fe00bf0837bd4680bd00bfb7
:10106400682d0120502d012080b400af044b1b6873
:101074000133034a136000bfbd465df8047b70472b
:101084006c2d012080b485b000af0023bb60012328
:101094007b60154b1b687a689a4201d20123bb60be
:1010a400124b1b68db6a002b02d00023fb6014e0a8
:1010b4000f4b1b68012b02d90023fb600de0bb68ba
:1010c400002b02d00023fb6007e00a4b1b68fb6087
:1010d400094b1b68fa68d31afb60fb68184614377f
:1010e400bd465df8047b70474c2d01206c2c01201b
:1010f400702c0120642d0120482d012080b588b07a
:1011040000af0023fb610023bb610ff00cfe002342
:101114003b616d4b1b68013b6b4a13606a4b1b6858
:10112400002b40f0ca80694b1b68002b00f0c5807f
:101134008ee0674bdb68db68fb61fb699b6afb60e5
:10114400fb69db69fa69126a9a60fb691b6afa69ce
:10115400d2695a60fb685a68fb6918339a4203d112
:10116400fb691a6afb685a60fb6900229a62fb6891
:101174001b685a1efb681a60fb695b69bb60fb69ec
:101184009b68fa69d2689a60fb69db68fa699268bd
:101194005a60bb685a68fb6904339a4203d1fb69fd
:1011a400da68bb685a60fb6900225a61bb681b6835
:1011b4005a1ebb681a60fb69db6a01229a40454be0
:1011c4001b681343434a1360fb69da6a42491346b6
:1011d4009b0013449b000b4404331b687b60fb6936
:1011e4007a689a607b689a68fb69da607b689b68b6
:1011f400fa6904325a60fb691a1d7b689a60fb69bc
:10120400da6a13469b0013449b00334a1a44fb6971
:101214005a61fb69da6a304913469b0013449b0008
:101224000b441b68fa69d26a591c2b4813469b006d
:1012340013449b0003441960fb69da6a274b1b685b
:10124400db6a9a4204d9264a3b69012142f82310f9
:101254001f4b1b68002b7ff46caffb69002b01d084
:1012640000f036fe1f4b1b687b617b69002b12d09c
:1012740000f048f90346002b04d0194a3b690121c8
:1012840042f823107b69013b7b617b69002befd122
:10129400144b00221a60124a3b6952f82330002b87
:1012a4000bd00123bb610d4b1b680f4b4ff08052d9
:1012b4001a60bff34f8fbff36f8f0ff04dfdbb6903
:1012c40018462037bd4680bd6c2d0120442d0120d9
:1012d400042d01204c2d0120702c01206c2c0120a8
:1012e400582d0120542d012004ed00e080b483b07a
:1012f40000af054b1b687b607b6818460c37bd4606
:101304005df8047b704700bf482d012080b483b092
:1013140000af00237b60054b1b683b603b681846ad
:101324000c37bd465df8047b704700bf482d012093
:1013340080b400af034b1b681846bd465df8047bc0
:10134400704700bf442d012080b485b000af7860a1
:101354007b68002b02d1064b1b6800e07b68fb60b6
:10136400fb68343318461437bd465df8047b704778
:101374006c2c012080b584b000af78600f4b1b68e3
:101384007a681344fb600e4b1b68fa689a420bd1cf
:101394000ff0c9fc0b4b1b6801330a4a13600ff0b2
:1013a400dbfc7b68013b7b60044b1a687b6813445d
:1013b400024a136000bf1037bd4680bd482d01208e
:1013c400642d0120542d012080b584b000af7860d5
:1013d400fff74afe0ff0a7fc074b1a687b6813441b
:1013e400054a13600ff0b8fcfff788fef860fb684d
:1013f40018461037bd4680bd542d012080b586b0f7
:1014040000af78607b683b61fff72efe7868fff7da
:1014140069fa0346022b63d101237b613b690433e0
:1014240018461af0ddfe0ff07efc3b699b6a002b28
:1014340008d03b69183318461af0d2fe3b690122e2
:1014440083f851200ff088fc3b69db6a01229a4043
:10145400284b1b681343274a13603b69da6a264901
:1014640013469b0013449b000b4404331b68fb602e
:101474003b69fa689a60fb689a683b69da60fb68c2
:101484009b683a6904325a603b691a1dfb689a608a
:101494003b69da6a13469b0013449b00164a1a44bc
:1014a4003b695a613b69da6a134913469b0013444a
:1014b4009b000b441b683a69d26a591c0e481346b8
:1014c4009b0013449b00034419603b69da6a0b4b8d
:1014d4001b68db6a9a4205d9094b01221a6001e0b4
:1014e40000237b61fff70afe7b6918461837bd4667
:1014f40080bd00bf4c2d0120702c01206c2c0120dc
:10150400582d012080b588b000af0023fb617a4bd1
:101514001b68002b40f0e480784b1b680133bb61ef
:10152400764abb691360bb69002b10d1744b1b68ee
:101534007b61744b1b68724a1360724a7b69136047
:10154400714b1b680133704a136000f0c1fc6f4b90
:101554001b68ba699a42c0f0a880694b1b681b6873
:10156400002b04d1694b4ff0ff321a609de0644bad
:101574001b68db68db683b613b695b68fb60ba69dd
:10158400fb689a4203d2614afb6813608de03b69b1
:101594005b69bb603b699b683a69d2689a603b6946
:1015a400db683a6992685a60bb685a683b690433dd
:1015b4009a4203d13b69da68bb685a603b690022ee
:1015c4005a61bb681b685a1ebb681a603b699b6af8
:1015d400002b1ed03b699b6a7b603b69db693a69df
:1015e400126a9a603b691b6a3a69d2695a607b68dd
:1015f4005a683b6918339a4203d13b691a6a7b687b
:101604005a603b6900229a627b681b685a1e7b6899
:101614001a603b69db6a01229a403d4b1b68134305
:101624003b4a13603b69da6a3a4913469b00134408
:101634009b000b4404331b683b603b693a689a6027
:101644003b689a683b69da603b689b683a69043294
:101654005a603b691a1d3b689a603b69da6a134613
:101664009b0013449b002b4a1a443b695a613b6913
:10167400da6a284913469b0013449b000b441b68f9
:101684003a69d26a591c234813469b0013449b00b1
:10169400034419603b69da6a1f4b1b68db6a9a4290
:1016a4007ff65baf0123fb6157e71b4b1b68da6acc
:1016b400184913469b0013449b000b441b68012be1
:1016c40001d90123fb61154b1b68002b01d126f0c6
:1016d4009dfa134b1b68002b09d00123fb6106e024
:1016e4000e4b1b6801330d4a136026f08ffafb6919
:1016f40018462037bd4680bd6c2d0120482d0120a1
:10170400fc2c0120002d01205c2d0120642d0120e2
:101714004c2d0120702c01206c2c0120542d012013
:10172400582d012080b588b000af304b1b68002bca
:1017340003d02f4b01221a6053e02d4b00221a6074
:101744002c4b1b681b6bfb614ff0a533bb61fb6922
:101754001b68ba699a4211d1fb6904331b68ba69e0
:101764009a420bd1fb6908331b68ba699a4205d1c6
:10177400fb690c331b68ba699a4209d01d4b1b687c
:1017840034337b611b4b1b687969184626f01cfabd
:10179400194b1b68bb60bb68b3fa83f3fb71fb791d
:1017a400c3f11f033b613a6913469b0013449b003a
:1017b400124a1344fb60fb685b685a68fb685a6012
:1017c400fb685a68fb6808339a4203d1fb68da68fd
:1017d400fb685a60fb685b68db68064a1360054b6c
:1017e4001b6800bf2037bd4680bd00bf6c2d0120a3
:1017f400582d01206c2c01204c2d0120702c01202f
:1018040080b582b000af78603960074b1b6818332d
:10181400194678681af0abfc0121386801f0eaf93e
:1018240000bf0837bd4680bd6c2c012080b586b052
:1018340000aff860b9607a60174b1b68ba6842f071
:1018440000429a61fb685b687b61134b1b687a6991
:10185400da61114b1b687a6992681a620e4b1a6836
:101864007b699b6818325a600b4b1b6803f11802a2
:101874007b699a60084b1b68fa689a62fb681b686c
:101884005a1cfb681a600121786801f0b3f900bfa3
:101894001837bd4680bd00bf6c2c012080b586b0d2
:1018a40000aff860b9607a60fb685b687b61164bd7
:1018b4001b687a69da61144b1b687a6992681a6248
:1018c400114b1a687b699b6818325a600e4b1b686f
:1018d40003f118027b699a600b4b1b68fa689a62e1
:1018e400fb681b685a1cfb681a607b68002b02d0db
:1018f4004ff0ff33bb607968b86801f07bf900bf33
:101904001837bd4680bd00bf6c2c012080b588b05f
:1019140000af78607b68db68db68bb61bb699b6a8e
:101924007b61bb69db69ba69126a9a60bb691b6a2d
:10193400ba69d2695a607b695a68bb6918339a429a
:1019440003d1bb691a6a7b695a60bb6900229a6237
:101954007b691b685a1e7b691a604b4b1b68002b02
:1019640062d1bb695b693b61bb699b68ba69d26838
:101974009a60bb69db68ba6992685a603b695a68c5
:10198400bb6904339a4203d1bb69da683b695a6084
:10199400bb6900225a613b691b685a1e3b691a6085
:1019a400bb69db6a01229a40384b1b681343374af0
:1019b4001360bb69da6a364913469b0013449b00e3
:1019c4000b4404331b68fb60bb69fa689a60fb68cc
:1019d4009a68bb69da60fb689b68ba6904325a602a
:1019e400bb691a1dfb689a60bb69da6a13469b00df
:1019f40013449b00264a1a44bb695a61bb69da6adc
:101a0400234913469b0013449b000b441b68ba698b
:101a1400d26a591c1e4813469b0013449b0003447e
:101a2400196000f055fa1be01a4b5b68bb60bb6998
:101a3400ba68da61bb689a68bb691a62bb689b685a
:101a4400ba6918325a60bb6903f11802bb689a601c
:101a5400bb69104a9a620f4b1b6801330d4a13602d
:101a6400bb69da6a0c4b1b68db6a9a4205d901230d
:101a7400fb610a4b01221a6001e00023fb61fb6950
:101a840018462037bd4680bd6c2d01204c2d012009
:101a9400702c0120042d01206c2c0120582d0120d4
:101aa40080b586b000af786039603b6843f000428f
:101ab4007b681a607b68db687b617b681b693b61c0
:101ac4007b685b687a6892689a607b689b687a68ce
:101ad40052685a603b695b687a689a4203d17b68b2
:101ae4009a683b695a607b6800221a613b691b68eb
:101af4005a1e3b691a6000f0ebf97b695b69fb6075
:101b04007b699b687a69d2689a607b69db687a69c9
:101b140092685a60fb685a687b6904339a4203d11d
:101b24007b69da68fb685a607b6900225a61fb684a
:101b34001b685a1efb681a607b69db6a01229a40a3
:101b4400254b1b681343244a13607b69da6a2349d3
:101b540013469b0013449b000b4404331b68bb6077
:101b64007b69ba689a60bb689a687b69da60bb680b
:101b74009b687a6904325a607b691a1dbb689a6053
:101b84007b69da6a13469b0013449b00134a1a4488
:101b94007b695a617b69da6a104913469b001344d6
:101ba4009b000b441b687a69d26a591c0b48134684
:101bb4009b0013449b00034419607b69da6a084b59
:101bc4001b68db6a9a4202d9064b01221a6000bfe5
:101bd4001837bd4680bd00bf4c2d0120702c01205c
:101be4006c2c0120582d012080b582b000af7860a4
:101bf4000ff099f8064b1a687b681a60054b1a684f
:101c04007b685a600ff0a8f800bf0837bd4680bd56
:101c14005c2d0120482d012080b483b000af786092
:101c2400064b1a687b681a60054b1a687b685a6011
:101c340000bf0c37bd465df8047b70475c2d012066
:101c4400482d012080b586b000af786039600ff070
:101c54006af8264b1b683b617b685b683a69d31a58
:101c6400fb60234b1b6893f85130002b07d0204bab
:101c74001b68002283f8512001237b612ee03b681e
:101c84001b68b3f1ff3f02d100237b6126e07b6830
:101c94001a68184b1b689a420ad07b685b683a69d9
:101ca4009a4205d301237b613b6800221a6015e048
:101cb4003b681b68fa689a420bd23b681a68fb6857
:101cc400d21a3b681a607868fff7a6ff00237b618d
:101cd40004e03b6800221a6001237b610ff03cf8aa
:101ce4007b6918461837bd4680bd00bf482d0120ca
:101cf4006c2c01205c2d012080b400af034b012229
:101d04001a6000bfbd465df8047b7047582d012062
:101d140080b584b000af786000f09ef8104b1b686b
:101d2400012b07d90f4b4ff080521a60bff34f8f2e
:101d3400bff36f8f25f064fffff7a4f9f860fb6829
:101d4400042be9d9fff790f9fff79cf9f860fb68d9
:101d5400042b02d9f8680ff06df8fff7cff9dbe731
:101d6400702c012004ed00e080b483b000af0123a7
:101d74003b600123fb71134b1b68002b02d0002333
:101d8400fb7117e0104b1b68002b02d00023fb7182
:101d940010e00e4b1b68002b02d00023fb7109e0fe
:101da4000b4b1a680b4b19683b68cb1a9a4201d14a
:101db4000223fb71fb7918460c37bd465df8047ba2
:101dc400704700bf042d0120582d0120542d0120ff
:101dd400302d0120442d012080b582b000af0023b6
:101de4007b600ce07a6813469b0013449b00124a04
:101df400134418461af06af97b6801337b607b68e8
:101e0400042befd90d481af061f90d481af05ef968
:101e14000c481af05bf90c481af058f90b481af000
:101e240055f90b4b054a1a600a4b054a1a6000bf64
:101e34000837bd4680bd00bf702c0120d42c012082
:101e4400e82c0120042d0120182d0120302d012023
:101e5400fc2c0120002d012080b582b000af19e0d8
:101e64000ef061ff0f4bdb68db687b607b6804333b
:101e740018461af0b5f90c4b1b68013b0a4a13606b
:101e84000a4b1b68013b094a13600ef065ff786832
:101e940000f00ef8054b1b68002be1d100bf08379a
:101ea400bd4680bd182d0120442d01202c2d01207c
:101eb40080b582b000af78607b681b6b18460cf06d
:101ec4009dfe78680cf09afe00bf0837bd4680bdc1
:101ed40080b400af0a4b1b681b68002b04d1094b6c
:101ee4004ff0ff321a6005e0054b1b68db681b6886
:101ef400044a136000bfbd465df8047b704700bf11
:101f0400fc2c0120642d012080b483b000af054b6c
:101f14001b687b607b6818460c37bd465df8047b04
:101f2400704700bf6c2c012080b485b000af78608e
:101f34000023fb607b68002b05db7b68002b02dc45
:101f4400044b1b68fb60fb6818461437bd465df8fc
:101f5400047b70476c2c012080b483b000af0b4b22
:101f64001b68002b02d101237b6008e0084b1b682f
:101f7400002b02d102237b6001e000237b607b689d
:101f840018460c37bd465df8047b7047502d012080
:101f94006c2d012080b586b000af78607b683b6112
:101fa40000237b617b68002b00f089803b69da6a3f
:101fb400454b1b68db6a9a4278d23b699b69002bcc
:101fc40006db414b1b68db6ac3f105023b699a617e
:101fd4003b6959693b69da6a13469b0013449b00c9
:101fe4003a4a1344994259d13b69043318461af0ca
:101ff400f7f80346002b0ad13b69db6a012202fa97
:1020040003f3da43324b1b681340314a13602e4bff
:102014001b68da6a3b69da623b69db6a01229a402f
:102024002b4b1b6813432a4a13603b69da6a27491e
:1020340013469b0013449b000b4404331b68fb6052
:102044003b69fa689a60fb689a683b69da60fb68e6
:102054009b683a6904325a603b691a1dfb689a60ae
:102064003b69da6a13469b0013449b00174a1a44df
:102074003b695a613b69da6a144913469b0013446d
:102084009b000b441b683a69d26a591c0f481346db
:102094009b0013449b000344196004e00a4b1b6833
:1020a400da6a3b69da6201237b6108e03b695a6cb6
:1020b400054b1b68db6a9a4201d201237b617b6971
:1020c40018461837bd4680bd6c2c0120702c0120a9
:1020d4004c2d012080b586b000af78607b683b61f1
:1020e40000237b617b68002b6ed03b699b6c5a1e7e
:1020f4003b699a643b69da6a3b695b6c9a4263d0d8
:102104003b699b6c002b5fd13b69043318461af082
:1021140067f80346002b0ad13b69db6a012202fa05
:1021240003f3da432b4b1b6813402a4a13603b69c1
:102134005a6c3b69da623b69db6ac3f105023b69ad
:102144009a613b69db6a01229a40224b1b68134364
:10215400204a13603b69da6a1f4913469b00134403
:102164009b000b4404331b68fb603b69fa689a606c
:10217400fb689a683b69da60fb689b683a690432d9
:102184005a603b691a1dfb689a603b69da6a134618
:102194009b0013449b00104a1a443b695a613b69f3
:1021a400da6a0d4913469b0013449b000b441b68d9
:1021b4003a69d26a591c084813469b0013449b0091
:1021c4000344196001237b617b6918461837bd46b7
:1021d40080bd00bf4c2d0120702c012080b588b03b
:1021e40000af786039607b68bb6101237b617b68e9
:1021f400002b00f08380bb695b6c3a689a4202d979
:102204003b68fb6102e0bb695b6cfb61bb69db6a39
:10221400fa699a4272d0bb699b6c7a699a426dd111
:10222400bb69db6a3b61bb69fa69da62bb699b69ba
:10223400002b04dbfb69c3f10502bb699a61bb692e
:1022440059693a6913469b0013449b002d4a134471
:10225400994253d1bb690433184619f0c1ff0346b0
:10226400002b0ad1bb69db6a012202fa03f3da43c9
:10227400254b1b681340244a1360bb69db6a0122a7
:102284009a40214b1b6813431f4a1360bb69da6ae7
:102294001c4913469b0013449b000b4404331b68e6
:1022a400fb60bb69fa689a60fb689a68bb69da608c
:1022b400fb689b68ba6904325a60bb691a1dfb68e3
:1022c4009a60bb69da6a13469b0013449b000d4a6b
:1022d4001a44bb695a61bb69da6a0a4913469b000e
:1022e40013449b000b441b68ba69d26a591c054805
:1022f40013469b0013449b000344196000bf20371e
:10230400bd4680bd702c01204c2d012080b483b0cb
:1023140000af094b1b689b697b60074b1b68da6a3b
:10232400054b1b68c2f105029a617b6818460c379d
:10233400bd465df8047b70476c2c012080b483b0eb
:1023440000af094b1b687b607b68002b04d07b6863
:102354009b6c5a1c7b689a647b6818460c37bd4694
:102364005df8047b704700bf6c2c012080b588b0f9
:1023740000aff860b9607a600023fb61fef774fe79
:102384000ef0d1fc2f4b1a68fb6812339b001344e8
:102394005b68002b0bd12b4b1a68fb68134450333a
:1023a40001221a707b68002b01d00123fb610ef01f
:1023b400d3fcfb69012b03d10121786800f01afcde
:1023c400fef79cfeb861fb69012b0ad1bb69002ba7
:1023d40007d11d4b4ff080521a60bff34f8fbff3ec
:1023e4006f8f0ef0a0fc174b1a68fb6812339b002a
:1023f40013445b687b617b69002b14d0bb68002ba2
:1024040008d0104b1a68fb6812339b001344002257
:102414005a6008e00b4b19687b695a1efb6812333b
:102424009b000b445a60074b1a68fb6813445033f3
:1024340000221a700ef090fc7b6918462037bd46c6
:1024440080bd00bf6c2c012004ed00e080b588b095
:1024540000aff860b9607a603b600023bb61fef7af
:1024640003fe0ef060fc3b4b1a68fb6813445033c8
:102474001b78dbb2022b1ad0364b1a68fb68123376
:102484009b0013445968bb68db431940fb68123353
:102494009b00134459602f4b1a68fb681344503354
:1024a40001221a70bb6a002b01d00123bb610ef01c
:1024b40053fcbb69012b03d10121b86a00f09afbdc
:1024c400fef71cfe7861bb69012b0ad17b69002be6
:1024d40007d1214b4ff080521a60bff34f8fbff3e7
:1024e4006f8f0ef020fc3b68002b08d0194b1a6844
:1024f400fb6812339b0013445a683b681a60154bff
:102504001a68fb68134450331b78dbb2022b02d0e9
:102514000023fb6110e00f4b1a68fb6812339b0029
:10252400134459687b68db431940fb6812339b00f2
:10253400134459600123fb61064b1a68fb6813447a
:10254400503300221a700ef007fcfb69184620373e
:10255400bd4680bd6c2c012004ed00e080b58ab03e
:1025640000aff860b9607a60fb7001237b62fb689e
:102574003b620ef0d8fb3b6b002b07d03a6abb687a
:1025840012339b0013445a683b6b1a603a6abb6867
:10259400134450331b78fb773a6abb6813445033b7
:1025a40002221a70fb78042b3fd801a252f823f0c0
:1025b4002f260001c9250001e7250001032600019b
:1025c400132600013a6abb6812339b0013445a680d
:1025d4007b681a43396abb6812339b000b445a6008
:1025e40024e03a6abb6812339b0013445b685a1cac
:1025f400396abb6812339b000b445a6016e03a6a8e
:10260400bb6812339b0013447a685a600ee0fb7f68
:10261400022b07d03a6abb6812339b0013447a68d2
:102624005a6003e000237b6200e000bffb7f012bc4
:1026340070d13b6a5b69bb613b6a9b683a6ad2684a
:102644009a603b6adb683a6a92685a60bb695a6866
:102654003b6a04339a4203d13b6ada68bb695a6025
:102664003b6a00225a61bb691b685a1ebb691a6027
:102674003b6adb6a01229a402a4b1b681343294aae
:1026840013603b6ada6a284913469b0013449b0093
:102694000b4404331b687b613b6a7a699a607b69eb
:1026a4009a683b6ada607b699b683a6a04325a60ca
:1026b4003b6a1a1d7b699a603b6ada6a13469b007f
:1026c40013449b00184a1a443b6a5a613b6ada6a0b
:1026d400154913469b0013449b000b441b683a6a3c
:1026e400d26a591c104813469b0013449b000344b0
:1026f4001960fff7edfb0d4b1b68da6a3b6adb6a76
:102704009a4207d20a4b4ff080521a60bff34f8fa0
:10271400bff36f8f0ef020fb7b6a18462837bd4647
:1027240080bd00bf4c2d0120702c01206c2c012099
:1027340004ed00e080b48fb000aff860b9607a6057
:10274400fb7001237b63fb683b63eff311824ff063
:10275400200383f31188bff36f8fbff34f8fba61e8
:102764007b61bb69fb623b6c002b07d03a6bbb6897
:1027740012339b0013445a683b6c1a603a6bbb6873
:10278400134450331b7887f82b303a6bbb681344df
:10279400503302221a70fb78042b41d801a252f85c
:1027a40023f000bf25280001bd270001db2700011d
:1027b400f7270001072800013a6bbb6812339b001e
:1027c40013445a687b681a43396bbb6812339b0005
:1027d4000b445a6025e03a6bbb6812339b001344e8
:1027e4005b685a1c396bbb6812339b000b445a60fc
:1027f40017e03a6bbb6812339b0013447a685a6043
:102804000fe097f82b30022b07d03a6bbb681233da
:102814009b0013447a685a6003e000237b6300e062
:1028240000bf97f82b30012b40f091804e4b1b6872
:10283400002b60d13b6b5b697b623b6b9b683a6ba3
:10284400d2689a603b6bdb683a6b92685a607b6a29
:102854005a683b6b04339a4203d13b6bda687b6a58
:102864005a603b6b00225a617b6a1b685a1e7b6a62
:102874001a603b6bdb6a01229a403c4b1b68134392
:102884003a4a13603b6bda6a394913469b00134496
:102894009b000b4404331b683b623b6b3a6a9a60af
:1028a4003b6a9a683b6bda603b6a9b683a6b04321a
:1028b4005a603b6b1a1d3b6a9a603b6bda6a13469b
:1028c4009b0013449b002a4a1a443b6b5a613b6b9e
:1028d400da6a274913469b0013449b000b441b6888
:1028e4003a6bd26a591c224813469b0013449b003e
:1028f400034419601be01f4b5b68fb613b6bfa6987
:10290400da61fb699a683b6b1a62fb699b683a6bf4
:1029140018325a603b6b03f11802fb699a603b6bf7
:10292400144a9a62134b1b680133124a13603b6bbf
:10293400da6a114b1b68db6a9a4208d97b6c002b5c
:1029440002d07b6c01221a600c4b01221a60fb6ad4
:102954003b613b6983f311887b6b18463c37bd466a
:102964005df8047b704700bf6c2d01204c2d0120c5
:10297400702c0120042d01206c2c0120582d0120e5
:1029840080b48fb000aff860b9607a60fb687b6395
:10299400eff311824ff0200383f31188bff36f8f9d
:1029a400bff34f8ffa61bb61fb693b637a6bbb6812
:1029b400134450331b7887f82f307a6bbb68134469
:1029c400503302221a707a6bbb6812339b00134493
:1029d4005b685a1c796bbb6812339b000b445a60ca
:1029e40097f82f30012b40f091804e4b1b68002b41
:1029f40060d17b6b5b69bb627b6b9b687a6bd268d3
:102a04009a607b6bdb687a6b92685a60bb6a5a681f
:102a14007b6b04339a4203d17b6bda68bb6a5a60de
:102a24007b6b00225a61bb6a1b685a1ebb6a1a6020
:102a34007b6bdb6a01229a403b4b1b6813433a4a87
:102a440013607b6bda6a394913469b0013449b007d
:102a54000b4404331b687b627b6b7a6a9a607b6ae3
:102a64009a687b6bda607b6a9b687a6b04325a6083
:102a74007b6b1a1d7b6a9a607b6bda6a13469b0038
:102a840013449b00294a1a447b6b5a617b6bda6ab4
:102a9400264913469b0013449b000b441b687a6b26
:102aa400d26a591c214813469b0013449b000344db
:102ab40019601be01e4b5b683b627b6b3a6ada6110
:102ac4003b6a9a687b6b1a623b6a9b687a6b183222
:102ad4005a607b6b03f118023b6a9a607b6b144a61
:102ae4009a62134b1b680133114a13607b6bda6ad9
:102af400104b1b68db6a9a4208d97b68002b02d012
:102b04007b6801221a600c4b01221a603b6b7b61cb
:102b14007b6983f3118800bf3c37bd465df8047bb5
:102b2400704700bf6c2d01204c2d0120702c01201a
:102b3400042d01206c2c0120582d012080b584b077
:102b440000af786039607b68002b02d1104b1b68a2
:102b540000e07b68bb600ef0e6f8ba683b6813449b
:102b640050331b78dbb2022b08d1ba683b6813449c
:102b7400503300221a700123fb6001e00023fb6044
:102b84000ef0eaf8fb6818461037bd4680bd00bf5a
:102b94006c2c012080b586b000aff860b9607a6013
:102ba400fb68002b02d1124b1b6800e0fb687b61c1
:102bb4000ef0b9f87a69bb6812339b0013445b6862
:102bc4003b617a69bb6812339b0013445a687b6883
:102bd400db431a407969bb6812339b000b445a608b
:102be4000ef0baf83b6918461837bd4680bd00bfe1
:102bf4006c2c012080b588b000af78603960394b07
:102c04001b68fb61384b1b68bb61384b1b687b61dd
:102c1400374b1b68002283f85120354b1b68043363
:102c2400184619f0ddfa0346002b0bd1304b1b6814
:102c3400db6a012202fa03f3da432e4b1b681340ca
:102c44002c4a13607b68b3f1ff3f24d13b68002b0f
:102c540021d0294b5b683b61254b1b683a699a601c
:102c6400234b1b683a699268da60214b1a683b6906
:102c74009b6804325a601e4b1b681a1d3b699a609c
:102c84001b4b1b681c4a5a611b4b1b6801331a4ab5
:102c9400136000bf22e0fa697b681344fb60144ba5
:102ca4001b68fa685a60fa68fb699a4207d2104bab
:102cb4001b6804331946786919f059fa0ee00c4b75
:102cc4001b6804331946b86919f051fa0b4b1b6899
:102cd400fa689a4202d2094afb68136000bf20379f
:102ce400bd4680bd482d0120fc2c0120002d012073
:102cf4006c2c01204c2d0120302d0120642d01204d
:102d040080b483b000af1a4b00221a60194b002222
:102d14001a60194b00221a60184b00221a60184bd3
:102d240000221a60174b00221a60174b00221a6007
:102d340000237b6007e0154a7b68002142f82310da
:102d44007b6801337b607b68002bf4dd104b002231
:102d54001a60104b00221a600f4b00221a600f4bae
:102d640000221a6000bf0c37bd465df8047b704733
:102d74006c2c01202c2d0120442d0120482d0120f4
:102d84004c2d0120502d0120542d0120582d0120bf
:102d94005c2d0120602d0120642d01206c2d01206b
:020000040000fa
:020000040100f9
:102da40080b483b000af0023fb8001237b717b7967
:102db40003f00103002b0bd001233b710d23fb8097
:102dc4003b7903f00103002b02d0fb880533fb8021
:102dd400fb8818460c37bd465df8047b704780b409
:102de40085b000af0346fb800023fb730fe0fb7b41
:102df4000c4a1b0113441b88fa889a4204d1fb7bba
:102e04001b01084a134406e0fb7b0133fb73fb7b85
:102e1400072becd9002318461437bd465df8047b14
:102e2400704700bfa02e012080b400af094b1b786f
:102e3400012b05d9074b1b78072b01d8012300e090
:102e4400002303f00103dbb21846bd465df8047ba2
:102e5400704700bf502e012080b485b000af0346f8
:102e6400fb80fb88052b1bd801a252f823f000bf7e
:102e74008d2e0001932e0001932e0001992e000146
:102e8400a52e00019f2e00010023fb730be00323fa
:102e9400fb7308e00423fb7305e00123fb7302e0ea
:102ea4000323fb7300bffb7b18461437bd465df854
:102eb400047b704780b500af124b1b68002b07d012
:102ec400104b1b68184611f01efa0e4b00221a60b4
:102ed4000d4b1b68002b07d00b4b1b68184611f0d9
:102ee40012fa094b00221a60084b1b68002b07d00a
:102ef400064b1b68184611f006fa044b00221a60b0
:102f040000bf80bd542e0120782e0120982e012070
:102f140080b400af074b00221a70074b00221a70ce
:102f2400064b4ff6ff721a8000bfbd465df8047b66
:102f3400704700bf502e01207c2e0120942e0120ca
:102f440080b582b000af78607b685b68002b07d0e7
:102f54007b685b68184611f0d6f97b6800225a60da
:102f64007b689b68002b07d07b689b68184611f030
:102f7400caf97b6800229a607b6800221a7300bf3a
:102f84000837bd4680bd80b58ab000af03463960be
:102f9400fb711346bb710c4b1b68002b0fd0fb79e4
:102fa4003b73ba7907f10c030433396818462ff0e0
:102fb400adfa054b1b6807f10c021046984700bf99
:102fc4002837bd4680bd00bf4c2e012080b584b09b
:102fd40000af78600b46fb701346bb700223fb8185
:102fe400fa2011f084f902467b685a607b685b68ba
:102ff400002b32d07b685b684ff482721a807b6846
:103004005b6803225a807b685b6801221a717b68c3
:103014005b68fa785a717b685b68ba789a717b68e6
:103024005b681b2283f8f820bb78002b01d0fff7e4
:1030340041ff7b681a887b685b68194610462bf051
:1030440041fc0346fb81fb89002b03d17868fff721
:1030540077ff02e07b6804221a73fb891846103755
:10306400bd4680bd80b584b000af78600b46fb7070
:103074000223fb81fa2011f03af902467b685a6078
:103084007b685b68002b2ad07b685b6840f2071280
:103094001a807b685b6801225a807b685b68fa78d7
:1030a4001a717b685b681b2283f8f820fb78002b7d
:1030b40001d0fff7fffe0c4b1a887b685b6819464a
:1030c40010462bf0fffb0346fb81fb89002b03d149
:1030d4007868fff735ff02e07b6804221a73fb89e6
:1030e40018461037bd4680bd942e012080b586b0a9
:1030f40000aff8600b467a60fb720223fb82fa2071
:1031040011f0f5f80246fb685a60fb685b68002b17
:103114006cd0fb685b684ff482721a80fb685b6852
:103124000d225a80fb685b6801221a71fb685b6898
:1031340002225a71fb685b68fa7a9a71fb7a002b57
:1031440033d1fb685b680022da71fb685b68073384
:10315400013304221a70fb685b68093304220021de
:1031640018462ff017ff7b681a68fb685b68d2b2b9
:103174005a737b681b681a0afb685b680d3301335a
:10318400d2b21a707b681b681a0cfb685b680d333b
:103194000233d2b21a707b681b681a0efb685b6834
:1031a4000d330333d2b21a7007e0fb685b68073350
:1031b4000a22002118462ff0edfefb685b681b22f3
:1031c40083f8f820fb681a88fb685b681946104688
:1031d4002bf078fb0346fb82fb8a002b03d1f868b3
:1031e400fff7aefe02e0fb6804221a73fb8a18465e
:1031f4001837bd4680bd90b587b000af0346fb804d
:103204002e4b1b78022b01d1002353e00023fb82b9
:103214000023bb8247e0fa88bb8ad31ab3f5007f48
:1032240028bf4ff400737b82254b1b78002b0ad1f7
:10323400244b1868244b1a68bb8a13447a8a1946ab
:103244002ff064f90de0214b18681e4b1c681e4bcf
:103254001a68bb8a1344798a224616f04afd03464b
:10326400fb82fb8a002b0ed1164b1b68fb60184bac
:103274001b78012b09d17b8af96818460af07cfe79
:103284000346fb8202e000bf00e000bffb8a002b84
:103294000ed1ba8a7b8a1344bb827a8a0d4b1b688f
:1032a40013440c4a1360ba8afb889a42b3d300e0f1
:1032b40000bffb8a18461c37bd4690bd9d2e0120d9
:1032c4009c2e0120782e0120542e0120982e0120be
:1032d4007d2e0120802e012090b58db000af786046
:1032e4003960fff7a1fd0346002b05d00022012120
:1032f4007868fff7fbfef0e03b689b895c1efff7f4
:103304004ffd03469c4203d1012387f82f300de083
:103314003b689b890e2b03d1002387f82f3005e0ef
:10332400002202217868fff7e1fed6e03b680e3305
:103334000133bb62bb6a1b781a46bb6a01331b7834
:103344001b021a44bb6a02331b781b041a44bb6a6f
:1033540003331b781b0613443b62bb6a0433bb6212
:10336400bb6a1b781a46bb6a01331b781b021a44da
:10337400bb6a02331b781b041a44bb6a03331b78f1
:103384001b0613443b61bb6a0433bb62bb6a1b78f4
:103394001a46bb6a01331b781b021a44bb6a023308
:1033a4001b781b041a44bb6a03331b781b061344a3
:1033b4007b61bb6a0433bb62bb6a1a78484b1a70e0
:1033c400bb6a0133bb6297f82f30002b25d0bb6a50
:1033d4001b789ab2bb6a01331b789bb21b029bb267
:1033e40013449bb23b83bb6a0233bb62bb6a1a7849
:1033f4003c4b1a70bb6a0133bb62bb6a1b789ab23e
:10340400bb6a01331b789bb21b029bb213449bb271
:103414007b83bb6a0233bb6206e000233b83314bf0
:1034240001221a7000237b832d4b1b78012b03d8b8
:103434002c4b1b78032b05d9002202217868fff757
:1034440055fe4ae0274b1b78022b12d0254b1b78e4
:1034540087f8243007f1200318460af043fd034699
:10346400bb85bb8d1846fff7f7fc034687f82e3063
:1034740002e0002387f82e3097f82e30002b23d15a
:103484003b689b883b813b6afb6097f82f30002b9d
:1034940003d0144b1b783b7701e0ff233b773b6a57
:1034a400114a13600f4b1b78022b02d10c4b0022e4
:1034b4001a700e4b02221a7007f1080318221946db
:1034c4000020fff760fd08e097f82e30002219462f
:1034d4007868fff70bfe0346bb853437bd4690bdc5
:1034e4009c2e01209d2e0120902e0120502e012083
:1034f40080b584b000af786039600223fb73504b11
:103504001b78032b05d0012203217868fff75efda9
:1035140092e03b689b89022b05d002220321786844
:10352400fff754fd88e03b68da7b464b1a70454b45
:103534001b78012b15d1444b1b78022b02d100239d
:10354400fb7309e00af004fd0346bb81bb891846fe
:10355400fff782fc0346fb733c4b1b683c4a136039
:1035640000e000bffb7b002b5ed14ff4806010f0c5
:10357400befe0246374b1a60334b1b78022b06d033
:103584004ff4007010f0b3fe0246334b1a60334b15
:103594001b78012b05d1e82010f0a9fe0246304b20
:1035a4001a602c4b1b68002b0fd0274b1b78022b67
:1035b40003d0294b1b68002b07d0284b1b78012b09
:1035c40006d1274b1b68002b02d10323fb732be08e
:1035d4001c4b1b783b721a4b04221a70214b00229d
:1035e4001a60214b00221a80204b00221a601b4bc8
:1035f4001b78012b0ed11a4b1b681d4a1d49184616
:1036040016f044fb0346bb81bb891846fff724fc34
:103614000346fb73fb7b002b06d107f10803012251
:1036240019460120fff7affcfb7b1a46032178689b
:10363400fff7ccfc0346bb811037bd4680bd00bffd
:10364400502e01207d2e01209d2e0120902e012040
:103654008c2e0120542e0120782e01209c2e012036
:10366400982e0120802e0120842e0120882e0120f6
:10367400582e0120682e012080b584b000af7860f8
:1036840039603b689b7b023b032b49d801a252f86b
:1036940023f000bfa9360001b3360001bd36000196
:1036a4001937000139687868fff716fe39e0396880
:1036b4007868fff71dff34e01b4b1b78082b05d1fe
:1036c400012204217868fff781fc2ae0164b1b785d
:1036d400032b0bd9154b1a68154b1b689a4205d35b
:1036e40000233b73104b07221a700be0fff7e2fb39
:1036f40001233b73002204217868fff767fc0a4b1f
:1037040008221a7007f10c03012219460420fff75e
:103714003afc06e0002200210520fff734fc00e01b
:1037240000bf1037bd4680bd502e0120882e0120d9
:103734008c2e012080b586b000af78603960484b8c
:103744001b78042b04d001217868fff78bfc84e0fc
:103754003b689b891a46434b1b881344b3f5806f1f
:1037640004d903217868fff77dfc76e00023bb8150
:103774003d4b1b683b4a128898183b6803f10e01c5
:103784003b689b891a462ef0c1fe3b689a89354beb
:103794001b8813449ab2334b1a803b689b891a46a0
:1037a400324b1b681a44324b1b689a4204d22d4b8d
:1037b4001b88b3f5806f23d12a4b1b881846fff76b
:1037c4001afd0346bb82bb8a1846fff745fb034636
:1037d400fb75fb7d002b0ad0214b05221a70fb7d63
:1037e40019467868fff73efc0346bb8235e0ba8988
:1037f4001c4b1b8813449bb2bb811a4b00221a80ba
:10380400bb89002b21d01b4b1b78022b0dd1164bef
:103814001b683b61124b06221a7007f10c03082245
:1038240019460320fff7affb0fe000233b6107f1cc
:103834000c03082219460220fff7a5fbfb7d19465d
:103844007868fff70ffc0346bb823b689b891a46e6
:10385400064b1b681344054a13601837bd4680bde8
:10386400502e0120842e0120542e0120882e012068
:103874008c2e01209d2e012080b500affff748fb60
:10388400fff718fb00bf80bd80b584b000af78603f
:103894007b681b78012b1bd0092b32d0002b40f006
:1038a400af807b689b78002b40f0ac800020fff752
:1038b40096faf860fb68002b05d10022002106204f
:1038c400fff761fba1e07b689a88fb681a8099e0a6
:1038d4007b685a884e4b1b889a4201d1fff7ccff74
:1038e4007b685b881846fff77afaf860fb68002b60
:1038f40000f08a80f868fff723fbfb6800221a8037
:1039040082e07b685b881846fff769faf860fb6819
:10391400002b69d0fb685b68002b65d0fb681b7bc0
:10392400013b032b62d801a252f823f04139000174
:103934005f3900017d390001cf390001fb681a8825
:10394400fb685b68194610462af0f4ff0346002b17
:103954004ed1f868fff7f4fa4ae0fb681a88fb686e
:103964005b68194610462bf001f80346002b41d141
:10397400f868fff7e5fa3de0fb681a88fb685b68c6
:10398400194610462bf00ef80346002b34d1fb6881
:103994005b68184610f0b7fcfb6800225a60fb68ad
:1039a40000221a73fb689b68002b25d0fb689b6878
:1039b4001946f868fff760fefb689b68184610f02c
:1039c400a2fcfb6800229a6016e0fb681a88fb6878
:1039d4005b68194610462af075ff0346002b0dd18b
:1039e400f868fff7adfa09e000bf0ee000bf0ce095
:1039f40000bf0ae000bf08e000bf06e000bf04e02b
:103a040000bf02e000bf00e000bf1037bd4680bd2c
:103a1400942e012080b586b000af78607b681b7857
:103a24000a2b00f04a810b2b40f0d4810023fb7554
:103a34007b689b881846fff7d2f938613b69002bf5
:103a440000f0d1813b695b68002b40f0cc817b683e
:103a5400db8840f2071293420bd17b689a88a54b0e
:103a64001b889a4240f0b88179683869fff762fe92
:103a7400b2e17b68db8840f2051293420ad07b688e
:103a8400db88b3f5827f05d07b68db88b3f5847f60
:103a940040f0a481984b1b68002b02d18023fb7556
:103aa40005e07b681b7a122b01d00623fb75fb7d96
:103ab400002b40f08b807b68db8840f20512934238
:103ac40004d07b68db88b3f5847f5ed17b689b7b05
:103ad4009ab27b68db7b9bb21b029bb213449bb202
:103ae400bb81bb89012b20d17b68db8840f20512a6
:103af400934207d1814b1b7843f00103dab27f4b29
:103b04001a7006e07d4b1b7843f00203dab27b4b5c
:103b14001a707a4b1b7803f00103002b02d0784b08
:103b240001221a700023fb7550e0bb89002b29d1b8
:103b3400704b1b884ff6ff72934205d07b689a88be
:103b44006c4b1b889a421ad17b68db8840f20512c1
:103b5400934207d1694b1b7823f00103dab2674b18
:103b64001a7006e0654b1b7823f00203dab2634b4c
:103b74001a70634b00221a700023fb7526e003239e
:103b8400fb7523e08023fb7520e07b68db88b3f5bd
:103b9400827f1bd15a4b1b78002b15d0554b1b88a9
:103ba4004ff6ff72934205d07b689a88514b1b886d
:103bb4009a4209d14f4b1b884ff6ff72934205d1ad
:103bc4007b689b7b022b01d00323fb75fb7d002bc1
:103bd40047d1fa2010f08bfb02463b695a603b69df
:103be4005b68002b00f0fc803b695b6813221a7051
:103bf4007b689a883b695b68194610462af0d2feb6
:103c04000346002b0dd13869fff79af97b68db88ee
:103c1400b3f5827f40f0e48079683869fff72cfdc2
:103c2400dee07b68db88b3f5827f40f0d9807b6877
:103c34009b890e33fb81fb89184610f058fb024622
:103c44003b699a603b699b68002b06d03b699b6883
:103c5400fa89796818462ef059fc3b6903221a73d5
:103c6400bee0042010f043fb02463b695a603b6906
:103c74005b68002b00f0b4803b695b687a68127a59
:103c84001a703b695b687a68d2885a803b695b68c2
:103c9400fa7d5a707b689a883b695b6819461046be
:103ca4002af048fe0346002b03d13869fff748f990
:103cb40096e03b6901221a7392e07b68db88b3f5d6
:103cc400817f40f08f800023bb757b689b881846fa
:103cd400fff785f838613b69002b00f084803b696d
:103ce4005b68002b7fd1044b1b68002b0ad1802317
:103cf400bb7514e0942e01204c2e01207c2e012053
:103d0400502e0120394b1b78002b02d10223bb75a6
:103d140005e07b681b7a0a2b01d00623bb75bb7dab
:103d2400002b2cd1fa2010f0e2fa02463b695a60cb
:103d34003b695b68002b55d03b695b6802221a80a3
:103d44003b695b680b229a703b695b680122da70fd
:103d54003b695b6801221a717b689a883b695b68de
:103d6400194610462af002fe0346002b03d1386997
:103d7400fff7e6f836e03b6902221a7332e00420ca
:103d840010f0b5fa02463b695a603b695b68002b48
:103d940028d03b695b687a68127a1a703b695b6861
:103da4007a68d2885a803b695b68ba7d5a707b68ae
:103db4009a883b695b68194610462af0bbfd0346a6
:103dc400002b03d13869fff7bbf80be03b690122f4
:103dd4001a7307e000bf06e000bf04e000bf02e082
:103de40000bf00e000bf1837bd4680bd502e012043
:103df40080b500af0f4b00221a600f4b00221a60ef
:103e04000e4b00221a600e4b00221a600d4b00224a
:103e14001a700d4b4ff6ff721a800c4b00221a7069
:103e2400802200210a482ff0b5f82ef06bfc0346df
:103e3400184680bd4c2e0120542e0120782e0120de
:103e4400982e0120502e0120942e01207c2e01203a
:103e5400a02e012080b483b000af7860044a7b6850
:103e6400136000bf0c37bd465df8047b704700bf8c
:103e74004c2e012080b500affef7d6ff0346002b81
:103e840004d0044b01221a70fff714f800231846db
:103e940080bd00bf502e012090b583b000af786084
:103ea4003960fef7c1ff0346002b01d0052310e063
:103eb4000a4a7b681446186859689a68db680fc414
:103ec400074a3b681446186859689a68db680fc447
:103ed400002318460c37bd4690bd00bf582e012064
:103ee400682e012080b584b000af03463a60fb80a1
:103ef4000b467b71fb881846fef771fff860fb6880
:103f0400002b01d1032323e0134b1b78022b03d195
:103f1400fb685b68002b01d0052319e07b79002b3b
:103f240005d00d4b03221a700c4afb8813807b7951
:103f3400002b01d0002300e002233a681946f868f8
:103f4400fff7d4f803467b81f868fef7f9ff7b8915
:103f540018461037bd4680bd502e0120942e0120f6
:103f640080b584b000af0346fb71154b1b8818461f
:103f7400fef735fff860134b1b78062b06d1fb6860
:103f8400002b03d0fb685b68002b01d0052312e0f3
:103f94000c4b04221a70fb79002b01d0002300e0a3
:103fa40003231946f868fff75df803467b81f86838
:103fb400fef7c6ff7b8918461037bd4680bd00bf9b
:103fc400942e0120502e012080b584b000af03460a
:103fd400fb71154b1b881846fef701fff860134b65
:103fe4001b78072b06d1fb68002b03d0fb685b68aa
:103ff400002b01d0052313e00c4b08221a70fb7927
:10400400002b01d0002300e003231a460421f868a2
:10401400fef7dcff03467b81f868fef791ff7b899e
:1040240018461037bd4680bd942e0120502e012025
:1040340080b582b000af78607b681b78012b02d01a
:10404400042b06d00be07b685b681846fff71cfc6a
:1040540005e07b685b681846fff7dcfc00bf00bf27
:084064000837bd4680bd00bf16
:020000040000fa
:020000040100f9
:10406c0080b584b000af786039600123fb607b6859
:10407c00bb60bb68002b5dd0bb68db6b002b59d0e1
:10408c00bb681a6cbb68db6b0021a3fb0223002b03
:10409c0000d001210b46002b4cd10cf040febb682c
:1040ac001a68bb68db6bb968096c01fb03f31a4433
:1040bc00bb689a60bb6800229a63bb681a68bb68cd
:1040cc005a60bb681a68bb68db6b013bb968096c4a
:1040dc0001fb03f31a44bb68da60bb68ff2283f868
:1040ec004420bb68ff2283f845203b68002b14d189
:1040fc00bb681b69002b1ad0bb6810331846fdf740
:10410c0001fc0346002b12d00e4b4ff080521a606c
:10411c00bff34f8fbff36f8f09e0bb6810331846a6
:10412c0017f0d0ffbb682433184617f0cbff0cf008
:10413c000ffe01e00023fb60fb6818461037bd46fc
:10414c0080bd00bf04ed00e080b58ab002aff8601e
:10415c00b9601346fb710023fb61fb68002b2dd06b
:10416c000021ba68fb68a3fb0223002b00d00121bd
:10417c000b46002b22d1fb68ba6802fb03f313f148
:10418c004d0f1bd8fb68ba6802fb03f3bb61bb691c
:10419c004c3318460af07cfcf861fb69002b0dd0ff
:1041ac00fb697b617b694c337b61fa79fb6900931a
:1041bc0013467a69b968f86800f005f8fb69184687
:1041cc002037bd4680bd80b584b000aff860b960c3
:1041dc007a60fb70bb68002b03d1bb69ba691a60ab
:1041ec0002e0bb697a681a60bb69fa68da63bb697a
:1041fc00ba681a640121b869fff732ffbb69002263
:10420c009a6400bf1037bd4680bd80b582b000af48
:10421c0078607b68002b0ed07b6800229a607b68ec
:10422c0000221a607b680022da6000230022002141
:10423c00786800f03bf800bf0837bd4680bd80b5fc
:10424c0086b000af0346fb7101237b6100233b6109
:10425c00fb791a4639697869fff776fff860f868d8
:10426c00fff7d3fffb6818461837bd4680bd80b5f5
:10427c0084b000af786039600023fb607b68002b52
:10428c000fd03a687b689a420bd8022200217868da
:10429c00fff75afff860fb68002b02d0fb683a6806
:1042ac009a63fb6818461037bd4680bd80b58ab04e
:1042bc0000aff860b9607a603b6000237b62fb68fa
:1042cc003b620cf02cfd3b6a9a6b3b6adb6b9a42af
:1042dc0002d33b68022b45d13b6a9b6bfb613a686e
:1042ec00b968386a00f0a2fcb8613b6a9b6c002b81
:1042fc0014d03b68022b02d1fb69002b2ed1386afb
:10430c0000f08cfe0346002b28d04a4b4ff0805215
:10431c001a60bff34f8fbff36f8f1fe03b6a5b6a6e
:10432c00002b10d03b6a24331846fdf7ebfa0346fa
:10433c00002b13d03f4b4ff080521a60bff34f8fbe
:10434c00bff36f8f0ae0bb69002b07d0394b4ff0de
:10435c0080521a60bff34f8fbff36f8f0cf0f8fcd5
:10436c00012363e07b68002b03d10cf0f1fc0023ec
:10437c005ce07b6a002b06d107f110031846fdf7b1
:10438c0047fc01237b620cf0e3fcfcf769fe0cf0ac
:10439c00c6fc3b6a93f844305bb2b3f1ff3f03d1e8
:1043ac003b6a002283f844203b6a93f845305bb2a9
:1043bc00b3f1ff3f03d13b6a002283f845200cf098
:1043cc00c7fc3a1d07f1100311461846fdf736fce1
:1043dc000346002b24d1386a00f043fd0346002b22
:1043ec0018d03b6a10337a6811461846fdf704fa68
:1043fc00386a00f0abfcfcf77dfe0346002b7ff423
:10440c0060af0c4b4ff080521a60bff34f8fbff36d
:10441c006f8f56e7386a00f099fcfcf76bfe50e79b
:10442c00386a00f093fcfcf765fe00231846283729
:10443c00bd4680bd04ed00e080b58eb000aff860e5
:10444c00b9607a603b60fb683b63eff311824ff01d
:10445c00200383f31188bff36f8fbff34f8ffa6183
:10446c00bb61fb69fb623b6b9a6b3b6bdb6b9a42f0
:10447c0002d33b68022b4ed13b6b93f8453087f847
:10448c002b303b6b9b6b7b623a68b968386b00f0e6
:10449c00cdfb97f92b30b3f1ff3f29d13b6b9b6cd4
:1044ac00002b12d03b68022b02d17b6a002b2fd140
:1044bc00386b00f0b3fd0346002b29d07b68002b32
:1044cc0026d07b6801221a6022e03b6b5b6a002bd2
:1044dc001ed03b6b24331846fdf714fa0346002b11
:1044ec0016d07b68002b13d07b6801221a600fe07a
:1044fc00fcf71aff386297f92b303a6a9a4207d9bf
:10450c0097f82b300133dbb25ab23b6b83f8452062
:10451c0001237b6301e000237b63fb6a7b617b6986
:10452c0083f311887b6b18463837bd4680bd80b548
:10453c008cb000af786039607b68bb62eff311829e
:10454c004ff0200383f31188bff36f8fbff34f8fae
:10455c007a613b617b697b62bb6a9b6b3b62bb6a2a
:10456c00db6b3a6a9a4242d2bb6a93f84530fb77ce
:10457c003b6a5a1cbb6a9a6397f91f30b3f1ff3f31
:10458c0023d1bb6a9b6c002b0cd0b86a00f046fda3
:10459c000346002b28d03b68002b25d03b6801221a
:1045ac001a6021e0bb6a5b6a002b1dd0bb6a243306
:1045bc001846fdf7a7f90346002b15d03b68002bd6
:1045cc0012d03b6801221a600ee0fcf7adfeb86118
:1045dc0097f91f30ba699a4206d9fb7f0133dbb2d7
:1045ec005ab2bb6a83f845200123fb6201e0002329
:1045fc00fb627b6afb60fb6883f31188fb6a1846dd
:10460c003037bd4680bd80b58ab000aff860b96068
:10461c007a6000237b62fb683b620cf080fb3b6a98
:10462c009b6bfb61fb69002b1fd0b968386a00f0eb
:10463c0067fbfb695a1e3b6a9a633b6a1b69002b3a
:10464c000fd03b6a10331846fdf75cf90346002b7c
:10465c0007d03d4b4ff080521a60bff34f8fbff322
:10466c006f8f0cf075fb012369e07b68002b03d185
:10467c000cf06efb002362e07b6a002b06d107f185
:10468c0014031846fdf7c4fa01237b620cf060fb9f
:10469c00fcf7e6fc0cf043fb3b6a93f844305bb24e
:1046ac00b3f1ff3f03d13b6a002283f844203b6afd
:1046bc0093f845305bb2b3f1ff3f03d13b6a002264
:1046cc0083f845200cf044fb3a1d07f11403114606
:1046dc001846fdf7b3fa0346002b23d1386a00f0d5
:1046ec0094fb0346002b17d03b6a24337a6811469f
:1046fc001846fdf781f8386a00f028fbfcf7fafc45
:10470c000346002b89d1104b4ff080521a60bff337
:10471c004f8fbff36f8f80e7386a00f017fbfcf701
:10472c00e9fc7ae7386a00f011fbfcf7e3fc386a25
:10473c0000f06bfb0346002b3ff46faf00231846d1
:10474c002837bd4680bd00bf04ed00e080b58ab0bf
:10475c0000af7860396000237b627b68fb610023cb
:10476c003b620cf0dcfafb699b6bbb61bb69002bf9
:10477c0024d0bb695a1efb699a63fb691b68002b2a
:10478c0004d1fdf7d7fd0246fb699a60fb691b69f2
:10479c00002b0fd0fb6910331846fdf7b3f8034616
:1047ac00002b07d04c4b4ff080521a60bff34f8f49
:1047bc00bff36f8f0cf0ccfa012389e03b68002b20
:1047cc0003d10cf0c5fa002382e07b6a002b06d1e2
:1047dc0007f10c031846fdf71bfa01237b620cf062
:1047ec00b7fafcf73dfc0cf09afafb6993f84430ed
:1047fc005bb2b3f1ff3f03d1fb69002283f8442085
:10480c00fb6993f845305bb2b3f1ff3f03d1fb6911
:10481c00002283f845200cf09bfa3a4607f10c0372
:10482c0011461846fdf70afa0346002b32d1f869f7
:10483c0000f0ebfa0346002b26d0fb691b68002b1b
:10484c0009d10cf06cfafb699b681846fdf79efbce
:10485c0038620cf07dfafb6924333a68114618462d
:10486c00fcf7cafff86900f071fafcf743fc034649
:10487c00002b7ff476af184b4ff080521a60bff3c9
:10488c004f8fbff36f8f6ce7f86900f05ffafcf79e
:10489c0031fc66e7f86900f059fafcf72bfcf86973
:1048ac0000f0b3fa0346002b3ff45baf3b6a002bde
:1048bc000dd00cf034faf86900f0a0f97861fb69be
:1048cc009b6879691846fdf785fc0cf041fa0023ca
:1048dc0018462837bd4680bd04ed00e080b58ab08f
:1048ec0000aff860b9607a6000237b62fb683b62c2
:1048fc000cf015fa3b6a9b6bfb61fb69002b21d01a
:10490c003b6adb68bb61b968386a00f0f9f93b6a4d
:10491c00ba69da603b6a5b6a002b0fd03b6a2433be
:10492c001846fcf7efff0346002b07d03c4b4ff02b
:10493c0080521a60bff34f8fbff36f8f0cf008fae1
:10494c00012369e07b68002b03d10cf001fa0023f2
:10495c0062e07b6a002b06d107f110031846fdf7c5
:10496c0057f901237b620cf0f3f9fcf779fb0cf09f
:10497c00d6f93b6a93f844305bb2b3f1ff3f03d1f5
:10498c003b6a002283f844203b6a93f845305bb2c3
:10499c00b3f1ff3f03d13b6a002283f845200cf0b2
:1049ac00d7f93a1d07f1100311461846fdf746f9e1
:1049bc000346002b23d1386a00f027fa0346002b5c
:1049cc0017d03b6a24337a6811461846fcf714ff5b
:1049dc00386a00f0bbf9fcf78dfb0346002b87d13e
:1049ec000f4b4ff080521a60bff34f8fbff36f8f96
:1049fc007ee7386a00f0aaf9fcf77cfb78e7386aa6
:104a0c0000f0a4f9fcf776fb386a00f0fef90346d7
:104a1c00002b3ff46daf002318462837bd4680bdf0
:104a2c0004ed00e080b58eb000aff860b9607a603c
:104a3c00fb683b63eff311824ff0200383f3118883
:104a4c00bff36f8fbff34f8ffa61bb61fb69fb62e2
:104a5c003b6b9b6bbb62bb6a002b37d03b6b93f8f9
:104a6c00443087f82730b968386b00f049f9bb6ad5
:104a7c005a1e3b6b9a6397f92730b3f1ff3f12d163
:104a8c003b6b1b69002b1ed03b6b10331846fcf79d
:104a9c0039ff0346002b16d07b68002b13d07b68a4
:104aac0001221a600fe0fcf73ffc386297f92730bf
:104abc003a6a9a4207d997f827300133dbb25ab2d7
:104acc003b6b83f8442001237b6301e000237b6371
:104adc00fb6a7b617b6983f311887b6b18463837e3
:104aec00bd4680bd80b58ab000af786039607b6808
:104afc003b62eff311824ff0200383f31188bff375
:104b0c006f8fbff34f8f7a613b617b69fb613b6aaf
:104b1c009b6b002b0cd03b6adb68bb613968386a35
:104b2c0000f0eef83b6aba69da6001237b6201e0bf
:104b3c0000237b62fb69fb60fb6883f311887b6a53
:104b4c0018462837bd4680bd80b584b000af78606c
:104b5c000cf0e5f87b689b6bfb600cf0f9f8fb68dc
:104b6c0018461037bd4680bd80b584b000af786064
:104b7c007b68fb600cf0d3f8fb68da6bfb689b6b13
:104b8c00d31abb600cf0e4f8bb6818461037bd466e
:104b9c0080bd80b485b000af78607b68fb60fb683b
:104bac009b6bbb60bb6818461437bd465df8047b35
:104bbc00704780b584b000af78607b68fb60f868a4
:104bcc000af018f800bf1037bd4680bd80b483b022
:104bdc0000af78607b681b6c18460c37bd465df8df
:104bec00047b704780b483b000af78607b68db6b6c
:104bfc0018460c37bd465df8047b704780b485b011
:104c0c0000af78607b685b6a002b06d07b681b6bff
:104c1c001b68c3f10503fb6001e00023fb60fb682c
:104c2c0018461437bd465df8047b704780b586b0d6
:104c3c0000aff860b9607a6000237b61fb689b6b06
:104c4c003b61fb681b6c002b0dd1fb681b68002bb8
:104c5c004dd1fb689b681846fdf738fa7861fb6804
:104c6c0000229a6043e07b68002b19d1fb685868de
:104c7c00fb681b6c1a46b9682df044fcfb685a683b
:104c8c00fb681b6c1a44fb685a60fb685a68fb682b
:104c9c009b689a422bd3fb681a68fb685a6026e023
:104cac00fb68d868fb681b6c1a46b9682df02afca7
:104cbc00fb68da68fb681b6c5b421a44fb68da60c1
:104ccc00fb68da68fb681b689a4207d2fb689a6833
:104cdc00fb681b6c5b421a44fb68da607b68022b36
:104cec0005d13b69002b02d03b69013b3b613b6921
:104cfc005a1cfb689a637b6918461837bd4680bd01
:104d0c0080b582b000af786039607b681b6c002b7b
:104d1c0018d07b68da687b681b6c1a447b68da6095
:104d2c007b68da687b689b689a4203d37b681a6855
:104d3c007b68da607b68d9687b681b6c1a463868bc
:104d4c002df0e0fb00bf0837bd4680bd80b584b0b8
:104d5c0000af78600bf0e3ff7b6893f84530fb7392
:104d6c001ee07b689b6c002b08d0786800f056f92d
:104d7c000346002b10d0fcf7bbff0de07b685b6a91
:104d8c00002b12d07b6824331846fcf7bbfd03467e
:104d9c00002b01d0fcf7acfffb7b013bdbb2fb73c0
:104dac0097f90f30002bdcdc00e000bf7b68ff22a2
:104dbc0083f845200bf0ccff0bf0b1ff7b6893f828
:104dcc004430bb7311e07b681b69002b12d07b68ed
:104ddc0010331846fcf796fd0346002b01d0fcf768
:104dec0087ffbb7b013bdbb2bb7397f90e30002b0b
:104dfc00e9dc00e000bf7b68ff2283f844200bf065
:104e0c00a7ff00bf1037bd4680bd80b584b000af92
:104e1c0078600bf084ff7b689b6b002b02d1012325
:104e2c00fb6001e00023fb600bf092fffb6818466f
:104e3c001037bd4680bd80b485b000af78607b680c
:104e4c00bb60bb689b6b002b02d10123fb6001e0b4
:104e5c000023fb60fb6818461437bd465df8047be5
:104e6c00704780b584b000af78600bf058ff7b685a
:104e7c009a6b7b68db6b9a4202d10123fb6001e0e9
:104e8c000023fb600bf064fffb6818461037bd462f
:104e9c0080bd80b485b000af78607b68bb60bb68b8
:104eac009a6bbb68db6b9a4202d10123fb6001e079
:104ebc000023fb60fb6818461437bd465df8047b85
:104ecc00704780b586b000aff860b9607a60fb6857
:104edc007b610bf024ff7b6993f844305bb2b3f138
:104eec00ff3f03d17b69002283f844207b6993f850
:104efc0045305bb2b3f1ff3f03d17b69002283f8ed
:104f0c0045200bf025ff7b699b6b002b06d17b6941
:104f1c0024337a68b9681846fcf7bcfc7869fff74b
:104f2c0015ff00bf1837bd4680bd80b584b000affb
:104f3c007860002204217868fff706f9f860fb68b6
:104f4c0018461037bd4680bd80b584b000af786080
:104f5c0039600bf0e4fe7b689b6c002b02d00023c5
:104f6c00fb600be07b689b6b002b02d00023fb608b
:104f7c0004e07b683a689a640123fb600bf0e8fe5e
:104f8c00fb6818461037bd4680bd80b584b000afb5
:104f9c00786039607b68bb60bb689b6c3a689a42ee
:104fac0002d00023fb600fe0bb689b6b002b02d090
:104fbc000023fb6008e00bf0b2febb6800229a6491
:104fcc000bf0c6fe0123fb60fb6818461037bd468c
:104fdc0080bd80b584b000af786039600023fb6081
:104fec0007f10c033a6819467868fff70cfbfb686d
:104ffc0018461037bd4680bd80b584b000af7860d0
:10500c000023fb6007f10c03002219467868fff7b8
:10501c0009fdfb6818461037bd4680bd80b586b0cb
:10502c0000af78607b689b6c3b6100237b613b69c4
:10503c009a6b3b69db6b9a422dd23b6993f84530f6
:10504c00fb733b1d002219463869fff7effd7861b1
:10505c0097f90f30b3f1ff3f0ed13b695b6a002b20
:10506c0019d03b6924331846fcf74cfc0346002b43
:10507c0011d001237b610ee0fcf756f9b86097f96b
:10508c000f30ba689a4206d9fb7b0133dbb25ab2b5
:10509c003b6983f845207b6918461837bd4680bdaf
:020000040000fa
:020000040100f9
:1050ac0080b483b000af0346fb7197f90730002b37
:1050bc000bdbfb7903f01f02074997f907305b09fb
:1050cc00012000fa02f241f8232000bf0c37bd4644
:1050dc005df8047b704700bf00e100e080b483b052
:1050ec0000af0346fb7197f90730002b0cdbfb7903
:1050fc0003f01f02074997f907305b09012000fafa
:10510c0002f2603341f8232000bf0c37bd465df836
:10511c00047b704700e100e080b483b000af03462d
:10512c003960fb7197f90730002b0adb3b68dab268
:10513c000c4997f907305201d2b20b4483f8002383
:10514c000ae03b68dab20849fb7903f00f03043b31
:10515c005201d2b20b441a7600bf0c37bd465df833
:10516c00047b704700e100e000ed00e080b582b008
:10517c0000af78607b681b0903f588032a3318029b
:10518c007b6803f00f03012202fa03f3194618f0af
:10519c003ff800bf0837bd4680bd80b582b000af78
:1051ac0078607b681b0903f588032a3318027b6837
:1051bc0003f00f03012202fa03f3194618f044f826
:1051cc0000bf0837bd4680bd80b582b000af7860a7
:1051dc007b681b0903f588032a3318027b6803f0ec
:1051ec000f03012202fa03f3194618f03bf800bf33
:1051fc000837bd4680bd80b483b000af0023fb717f
:10520c00074bd3f8083103f04043002b01d00123a6
:10521c00fb71fb7918460c37bd465df8047b704773
:10522c000024004480b485b000af03460a46fb80de
:10523c001346bb80314b1b689968fa8813465b0098
:10524c0013445b000b445b88ba889a4202d100235a
:10525c007b734ce0294b1b689968fa8813465b00fa
:10526c0013445b000b445b88ba889a420dd9234bdc
:10527c001b689968fa8813465b0013445b000b4467
:10528c005b88ba88d31afb810ce01c4b1b689968ad
:10529c00fa8813465b0013445b000b445a88bb88a6
:1052ac00d31afb81fb895b08fb81fb89b3f58a7ff1
:1052bc0002d301237b731ae0fb890a2b02d800234b
:1052cc007b7314e00d4b1b681b68db781b09dbb28e
:1052dc0003f003033b733b7b094a32f81330fa8922
:1052ec009a4202d800237b7301e001237b737b7b02
:1052fc0018461437bd465df8047b70470c0000203f
:10530c00881c030180b485b000af78600b467b80ad
:10531c000023bb730023fb737b68002b02d10b2390
:10532c00fb7342e07b681b681b887a889a4202d325
:10533c000223fb7339e07b681b689b78bb73bb7bd8
:10534c00402b0ad17b6899687a8813465b0013441a
:10535c005b000b4400229a8012e0bb7b802b02d0b6
:10536c00bb7b812b0ad17b6899687a8813465b00da
:10537c0013445b000b4400229a8001e00223fb7370
:10538c007b6899687a8813465b0013445b000b4476
:10539c0019787b6898687a8813465b0013445b0025
:1053ac00034441f00202d2b21a70fb7b1846143748
:1053bc00bd465df8047b704780b586b000af786061
:1053cc000023fb7500233b610023fb6000237b81e2
:1053dc007b68002b02d10b23fb753ae000237b8109
:1053ec001ae07b6859687a8913465b0013449b006a
:1053fc000b441b683a6913433b617b6859687a8993
:10540c0013465b0013449b000b445b68fa68134320
:10541c00fb607b8901337b817b681b681b887a89e5
:10542c009a42ded3fb68002b02d10223fb7510e0fd
:10543c000a4b1b78002b02d1084b01221a70084a28
:10544c000021f86800f060fa064a0021386900f083
:10545c005bfafb7d18461837bd4680bdbb35012075
:10546c00781c0301701c030190b589b000af034692
:10547c00fb710023fb7600237b770023bb76002394
:10548c007b760023fb82ab4b1a68fb799b001344a1
:10549c001b683b61a84b1b689968fa7913465b0043
:1054ac0013445b000b441b789b08dbb203f007032f
:1054bc00fb73a14b1b685968fa7913465b001344c4
:1054cc009b000b44db7abb76fb7b042b00f2e9815f
:1054dc0001a252f823f000bff95400016b550001f2
:1054ec00b1580001af58000149570001924b1b689d
:1054fc005968fa7913465b0013449b000b449b7a62
:10550c0003f00f037b76ba7e7b7e9a4204d9ba7e77
:10551c007b7ed31a3b7701e000233b77864b1b68dd
:10552c005968fa7913465b0013449b000b449b7a31
:10553c001b09dbb23a7fd31adbb202333b773b7fda
:10554c003a6922fa03f07c4b1b689968fa79134686
:10555c005b0013445b000b4482b25a80a3e1bb7e18
:10556c003b773b7f3a6922fa03f39bb23b61724b68
:10557c001b689968fa7913465b0013445b000b4473
:10558c003a6992b25a806c4b1b689968fa79134647
:10559c005b0013445b000b449b88fb823b69b3f5b7
:1055ac00805f07d33b699bb2a3f6ff73fb83012398
:1055bc007b7707e03b699bb2c3f57f630f33fb83bb
:1055cc0000237b77fb8b5b08fb835b4b1b681b68a7
:1055dc009b78402b07d17b7f002b02d101237b775b
:1055ec0001e000237b777b7f012b10d1fb8a072bfb
:1055fc001ad10023fb83504b1b689968fa79134628
:10560c005b0013445b000b4401221a700ce0002376
:10561c00fb83494b1b689968fa7913465b0013446a
:10562c005b000b4401221a70fb8b4a2b70d8424b47
:10563c001b681b68db7803f00303bb733e4b1b68d2
:10564c009968fa7913465b0013445b000b441b7892
:10565c0003f04003002b0bd0374b1b689968fa7989
:10566c0013465b0013445b000b4401221a7040e0ac
:10567c00314b1b689968fa7913465b0013445b0045
:10568c000b441b785bb2002b33dbbb7b032b16d19b
:10569c00294b1b685968fa7913465b0013449b002d
:1056ac000b447f221a72244b1b689968fa791346b3
:1056bc005b0013445b000b4411221a7019e0bb7b96
:1056cc00022b0bd11c4b1b689968fa7913465b00b3
:1056dc0013445b000b4401221a700ae0164b1b6842
:1056ec009968fa7913465b0013445b000b44012262
:1056fc001a70114b1b689968fa7913465b001344b6
:10570c005b000b44fa8a02f0070292b29a80cae05c
:10571c00fb8a0133fb82084b1b689968fa791346a4
:10572c005b0013445b000b44fa8a02f0070292b24e
:10573c009a80b8e0100000200c000020bb7e3b7764
:10574c003b7f3a6922fa03f33b61594b1b6859685a
:10575c00fa7913465b0013449b000b441b7a7f2b96
:10576c0023d1534b1b689968fa7913465b00134499
:10577c005b000b443a6992b25a804d4b1b685968d6
:10578c00fa7913465b0013449b000b44197a484b7f
:10579c001b685868fa7913465b0013449b0003445a
:1057ac0021f04002d2b21a727de000233b771be05d
:1057bc003f4b1b685968fa7913465b0013449b00f6
:1057cc000b441b7a1a463b7f22fa03f303f00103c6
:1057dc00002b04d13b7f7b7707233b7701e0002331
:1057ec007b773b7f01333b773b7f062be0d9fb7903
:1057fc009bb23a6992b211461846fff713fd034665
:10580c007b737b7b002b1bd0294b1b685968fa7967
:10581c0013465b0013449b000b44187a7b7f0122d8
:10582c0002fa03f3d9b2224b1b685c68fa7913466f
:10583c005b0013449b00234440ea0102d2b21a726b
:10584c007b7f002b21d07b7f013b7b77184b1b6828
:10585c005968fa7913465b0013449b000b441a7a7f
:10586c007b7f012101fa03f3dbb2db43dbb2134094
:10587c003b770f4b1b685968fa7913465b0013444e
:10588c009b000b443a7f1a720de0094b1b68996818
:10589c00fa7913465b0013445b000b4401221a7027
:1058ac0001e0fee700bffb7e18462437bd4690bde5
:1058bc000c00002080b582b000af0023fb71104bb0
:1058cc001b78002b02d10323fb7114e00023bb8057
:1058dc0007e0bb88dbb21846fff7c6fdbb88013377
:1058ec00bb80084b1b681b681b88ba889a42f0d394
:1058fc00034b02221a70fb7918460837bd4680bd4f
:10590c00bb3501200c00002080b586b000aff860dc
:10591c000b467a60fb720023fb750023fb7523e0ba
:10592c00fb7dfa6822fa03f303f00103002b18d075
:10593c00fb7a002b07d0fb7d7a6813441b78184642
:10594c00fff72bfc0de0fb7d7a6813441b7818469f
:10595c00fff73afcfb7d7a6813441b781846fff777
:10596c0005fcfb7d0133fb75fb7d1f2bd8d900bfdc
:10597c001837bd4680bd80b483b000af0223fb71e5
:10598c00184b1b88bb80184b1b681b681b88ba887c
:10599c009a4217d2144b1b689968ba8813465b005d
:1059ac0013445b000b441b7803f00103002b03d161
:1059bc00bb880133bb800ae00023fb71094abb881a
:1059cc00138004e00123fb71064b00221a80fb7943
:1059dc00022bd8d0fb7918460c37bd465df8047bfa
:1059ec00704700bfb83501200c00002080b485b092
:1059fc0000af78600023fb737b68002b02d10b2374
:105a0c00fb7302e0044a7b681360fb7b1846143777
:105a1c00bd465df8047b70471000002080b485b053
:105a2c0000af114b1a69104b5b69d31afb600f4b1b
:105a3c001b685a680e4b1b8819460b465b000b44bf
:105a4c009b001344db7a1a4640f6ff739340bb600d
:105a5c00fb68ba6813447b607b6818461437bd46f4
:105a6c005df8047b704700bf002400440c0000204c
:105a7c00b835012080b485b000af78600023fb738b
:105a8c002b4b4ff000621a60294b0022c3f80821ff
:105a9c00284b1b681b689b78402b05d1244b4ff07f
:105aac008072c3f8082119e0224b1b681b689b7895
:105abc00802b05d11e4b4ff00072c3f808210de06e
:105acc001c4b1b681b689b78812b05d1184b4ff026
:105adc004072c3f8082101e00223fb73fb7b002b0f
:105aec001ad1134b0b225a60114bd3f80831104ac0
:105afc0043f00063c2f808310e4b1b681b681b791e
:105b0c000f2b06d80b4b1b681b681a790a4b1a70a3
:105b1c0002e0094b00221a70054b054a1b68136002
:105b2c00fb7b18461437bd465df8047b704700bffd
:105b3c00002400440c000020ba35012080b584b04c
:105b4c0000af0346fb800023fb73974bd3f808315f
:105b5c00bb60954b1b68944a43f0006313600023b1
:105b6c007b7300233b730023bb73904b1b685968fa
:105b7c00fa8813465b0013449b000b445b688c4a09
:105b8c0001211846fff7c0fe0023fb731fe0874b73
:105b9c001b685968fa8813465b0013449b000b443e
:105bac005a68fb7b012101fa03f31340002b0bd045
:105bbc00bb7b5a1cba731a467e4b53f82230fa7bc5
:105bcc001a703b7b01333b73fb7b0133fb73fb7b19
:105bdc00072bdcd90023bb730023fb731fe0734b33
:105bec001b685968fa8813465b0013449b000b44ee
:105bfc001a68fb7b012101fa03f31340002b0bd035
